{
  "contractName": "Doctor",
  "abi": [
    {
      "constant": true,
      "inputs": [],
      "name": "getDoctorInfo",
      "outputs": [
        {
          "internalType": "string",
          "name": "",
          "type": "string"
        },
        {
          "internalType": "string",
          "name": "",
          "type": "string"
        },
        {
          "internalType": "address[]",
          "name": "",
          "type": "address[]"
        }
      ],
      "payable": false,
      "stateMutability": "view",
      "type": "function"
    },
    {
      "constant": false,
      "inputs": [
        {
          "internalType": "string",
          "name": "_name",
          "type": "string"
        },
        {
          "internalType": "string",
          "name": "_age",
          "type": "string"
        }
      ],
      "name": "signupDoctor",
      "outputs": [],
      "payable": false,
      "stateMutability": "nonpayable",
      "type": "function"
    }
  ],
  "bytecode": "0x608060405234801561001057600080fd5b50610f28806100206000396000f3fe608060405234801561001057600080fd5b50600436106100365760003560e01c8063b380f5c61461003b578063bb56df8714610172575b600080fd5b6100436102c4565b60405180806020018060200180602001848103845287818151815260200191508051906020019080838360005b8381101561008b578082015181840152602081019050610070565b50505050905090810190601f1680156100b85780820380516001836020036101000a031916815260200191505b50848103835286818151815260200191508051906020019080838360005b838110156100f15780820151818401526020810190506100d6565b50505050905090810190601f16801561011e5780820380516001836020036101000a031916815260200191505b50848103825285818151815260200191508051906020019060200280838360005b8381101561015a57808201518184015260208101905061013f565b50505050905001965050505050505060405180910390f35b6102c26004803603604081101561018857600080fd5b81019080803590602001906401000000008111156101a557600080fd5b8201836020820111156101b757600080fd5b803590602001918460018302840111640100000000831117156101d957600080fd5b91908080601f016020809104026020016040519081016040528093929190818152602001838380828437600081840152601f19601f8201169050808301925050505050505091929192908035906020019064010000000081111561023c57600080fd5b82018360208201111561024e57600080fd5b8035906020019184600183028401116401000000008311171561027057600080fd5b91908080601f016020809104026020016040519081016040528093929190818152602001838380828437600081840152601f19601f820116905080830192505050505050509192919290505050610823565b005b6060806060336102d2610d43565b6000808373ffffffffffffffffffffffffffffffffffffffff1673ffffffffffffffffffffffffffffffffffffffff168152602001908152602001600020604051806080016040529081600082018054600181600116156101000203166002900480601f0160208091040260200160405190810160405280929190818152602001828054600181600116156101000203166002900480156103b45780601f10610389576101008083540402835291602001916103b4565b820191906000526020600020905b81548152906001019060200180831161039757829003601f168201915b50505050508152602001600182018054600181600116156101000203166002900480601f0160208091040260200160405190810160405280929190818152602001828054600181600116156101000203166002900480156104565780601f1061042b57610100808354040283529160200191610456565b820191906000526020600020905b81548152906001019060200180831161043957829003601f168201915b505050505081526020016002820160009054906101000a900473ffffffffffffffffffffffffffffffffffffffff1673ffffffffffffffffffffffffffffffffffffffff1673ffffffffffffffffffffffffffffffffffffffff1681526020016003820180548060200260200160405190810160405280929190818152602001828054801561053a57602002820191906000526020600020905b8160009054906101000a900473ffffffffffffffffffffffffffffffffffffffff1673ffffffffffffffffffffffffffffffffffffffff16815260200190600101908083116104f0575b5050505050815250509050600073ffffffffffffffffffffffffffffffffffffffff16816040015173ffffffffffffffffffffffffffffffffffffffff161161058257600080fd5b61058a610d43565b6000803373ffffffffffffffffffffffffffffffffffffffff1673ffffffffffffffffffffffffffffffffffffffff168152602001908152602001600020604051806080016040529081600082018054600181600116156101000203166002900480601f01602080910402602001604051908101604052809291908181526020018280546001816001161561010002031660029004801561066c5780601f106106415761010080835404028352916020019161066c565b820191906000526020600020905b81548152906001019060200180831161064f57829003601f168201915b50505050508152602001600182018054600181600116156101000203166002900480601f01602080910402602001604051908101604052809291908181526020018280546001816001161561010002031660029004801561070e5780601f106106e35761010080835404028352916020019161070e565b820191906000526020600020905b8154815290600101906020018083116106f157829003601f168201915b505050505081526020016002820160009054906101000a900473ffffffffffffffffffffffffffffffffffffffff1673ffffffffffffffffffffffffffffffffffffffff1673ffffffffffffffffffffffffffffffffffffffff168152602001600382018054806020026020016040519081016040528092919081815260200182805480156107f257602002820191906000526020600020905b8160009054906101000a900473ffffffffffffffffffffffffffffffffffffffff1673ffffffffffffffffffffffffffffffffffffffff16815260200190600101908083116107a8575b5050505050815250509050806000015181602001518260600151829250819150809050955095509550505050909192565b61082b610d43565b6000803373ffffffffffffffffffffffffffffffffffffffff1673ffffffffffffffffffffffffffffffffffffffff168152602001908152602001600020604051806080016040529081600082018054600181600116156101000203166002900480601f01602080910402602001604051908101604052809291908181526020018280546001816001161561010002031660029004801561090d5780601f106108e25761010080835404028352916020019161090d565b820191906000526020600020905b8154815290600101906020018083116108f057829003601f168201915b50505050508152602001600182018054600181600116156101000203166002900480601f0160208091040260200160405190810160405280929190818152602001828054600181600116156101000203166002900480156109af5780601f10610984576101008083540402835291602001916109af565b820191906000526020600020905b81548152906001019060200180831161099257829003601f168201915b505050505081526020016002820160009054906101000a900473ffffffffffffffffffffffffffffffffffffffff1673ffffffffffffffffffffffffffffffffffffffff1673ffffffffffffffffffffffffffffffffffffffff16815260200160038201805480602002602001604051908101604052809291908181526020018280548015610a9357602002820191906000526020600020905b8160009054906101000a900473ffffffffffffffffffffffffffffffffffffffff1673ffffffffffffffffffffffffffffffffffffffff1681526020019060010190808311610a49575b50505050508152505090506040518060000190506040518091039020836040516020018082805190602001908083835b60208310610ae65780518252602082019150602081019050602083039250610ac3565b6001836020036101000a038019825116818451168082178552505050505050905001915050604051602081830303815290604052805190602001201415610b2c57600080fd5b6040518060000190506040518091039020826040516020018082805190602001908083835b60208310610b745780518252602082019150602081019050602083039250610b51565b6001836020036101000a038019825116818451168082178552505050505050905001915050604051602081830303815290604052805190602001201415610bba57600080fd5b600073ffffffffffffffffffffffffffffffffffffffff16816040015173ffffffffffffffffffffffffffffffffffffffff161115610bf857600080fd5b60405180608001604052808481526020018381526020013373ffffffffffffffffffffffffffffffffffffffff1681526020016000604051908082528060200260200182016040528015610c5b5781602001602082028038833980820191505090505b508152506000803373ffffffffffffffffffffffffffffffffffffffff1673ffffffffffffffffffffffffffffffffffffffff1681526020019081526020016000206000820151816000019080519060200190610cb9929190610d81565b506020820151816001019080519060200190610cd6929190610d81565b5060408201518160020160006101000a81548173ffffffffffffffffffffffffffffffffffffffff021916908373ffffffffffffffffffffffffffffffffffffffff1602179055506060820151816003019080519060200190610d3a929190610e01565b50905050505050565b60405180608001604052806060815260200160608152602001600073ffffffffffffffffffffffffffffffffffffffff168152602001606081525090565b828054600181600116156101000203166002900490600052602060002090601f016020900481019282601f10610dc257805160ff1916838001178555610df0565b82800160010185558215610df0579182015b82811115610def578251825591602001919060010190610dd4565b5b509050610dfd9190610e8b565b5090565b828054828255906000526020600020908101928215610e7a579160200282015b82811115610e795782518260006101000a81548173ffffffffffffffffffffffffffffffffffffffff021916908373ffffffffffffffffffffffffffffffffffffffff16021790555091602001919060010190610e21565b5b509050610e879190610eb0565b5090565b610ead91905b80821115610ea9576000816000905550600101610e91565b5090565b90565b610ef091905b80821115610eec57600081816101000a81549073ffffffffffffffffffffffffffffffffffffffff021916905550600101610eb6565b5090565b9056fea265627a7a72315820d198195170ce675ae7e9c86af2ba2692891a59c974b7be897dd2726f402c759e64736f6c63430005100032",
  "source": "pragma solidity >=0.4.21 <0.7.0;\n\ncontract Doctor {\n    mapping (address => doctor) internal doctors;\n    mapping (address => mapping(address => uint)) internal doctorToPatient;\n    \n    struct doctor {\n        string name;\n        string age;\n        address id;\n        address[] patient_list;\n    }\n    \n    modifier checkDoctor(address id) {\n        doctor memory d = doctors[id];\n        require(d.id > address(0x0));//check if doctor exist\n        _;\n    }\n    \n    function getDoctorInfo() public view checkDoctor(msg.sender) returns(string memory, string memory, address[] memory){\n        doctor memory d = doctors[msg.sender];\n        return (d.name, d.age, d.patient_list);\n    }\n    \n    function signupDoctor(string memory _name, string memory _age) public {\n        doctor memory d = doctors[msg.sender];\n        require(keccak256(abi.encodePacked(_name)) != keccak256(\"\"));\n        require(keccak256(abi.encodePacked(_age)) != keccak256(\"\"));\n        require(!(d.id > address(0x0)));\n\n        doctors[msg.sender] = doctor({name:_name,age:_age,id:msg.sender,patient_list:new address[](0)});\n    }    \n    \n}",
  "sourcePath": "C:\\Users\\sanika acharya\\OneDrive\\Desktop\\mid term sem7\\bdlt main\\contracts\\doctor.sol",
  "compiler": {
    "name": "solc",
    "version": "0.5.16+commit.9c3226ce.Emscripten.clang"
  },
  "schemaVersion": "3.4.13",
  "updatedAt": "2023-03-25T07:13:49.590Z",
  "devdoc": {
    "methods": {}
  },
  "userdoc": {
    "methods": {}
  }
}